{
    "_format": "hh-sol-artifact-1",
    "contractName": "CollateralManager",
    "sourceName": "contracts/CollateralManager.sol",
    "abi": [
        {
            "inputs": [
                {
                    "internalType": "address",
                    "name": "_priceOracle",
                    "type": "address"
                }
            ],
            "stateMutability": "nonpayable",
            "type": "constructor"
        },
        {
            "anonymous": false,
            "inputs": [
                {
                    "indexed": false,
                    "internalType": "uint16",
                    "name": "newCloseFactor",
                    "type": "uint16"
                }
            ],
            "name": "CloseFactorUpdated",
            "type": "event"
        },
        {
            "anonymous": false,
            "inputs": [
                {
                    "indexed": false,
                    "internalType": "uint16",
                    "name": "newBonus",
                    "type": "uint16"
                }
            ],
            "name": "LiquidationBonusUpdated",
            "type": "event"
        },
        {
            "anonymous": false,
            "inputs": [
                {
                    "indexed": true,
                    "internalType": "address",
                    "name": "token",
                    "type": "address"
                },
                {
                    "indexed": false,
                    "internalType": "uint16",
                    "name": "threshold",
                    "type": "uint16"
                }
            ],
            "name": "LiquidationThresholdUpdated",
            "type": "event"
        },
        {
            "anonymous": false,
            "inputs": [
                {
                    "indexed": true,
                    "internalType": "address",
                    "name": "token",
                    "type": "address"
                },
                {
                    "indexed": false,
                    "internalType": "uint16",
                    "name": "ltv",
                    "type": "uint16"
                }
            ],
            "name": "LtvUpdated",
            "type": "event"
        },
        {
            "inputs": [],
            "name": "BASE",
            "outputs": [
                {
                    "internalType": "uint16",
                    "name": "",
                    "type": "uint16"
                }
            ],
            "stateMutability": "view",
            "type": "function"
        },
        {
            "inputs": [
                {
                    "internalType": "address",
                    "name": "token",
                    "type": "address"
                },
                {
                    "internalType": "uint256",
                    "name": "amount",
                    "type": "uint256"
                }
            ],
            "name": "borrowingPowerUSD",
            "outputs": [
                {
                    "internalType": "uint256",
                    "name": "",
                    "type": "uint256"
                }
            ],
            "stateMutability": "view",
            "type": "function"
        },
        {
            "inputs": [],
            "name": "closeFactor",
            "outputs": [
                {
                    "internalType": "uint16",
                    "name": "",
                    "type": "uint16"
                }
            ],
            "stateMutability": "view",
            "type": "function"
        },
        {
            "inputs": [
                {
                    "internalType": "address",
                    "name": "token",
                    "type": "address"
                },
                {
                    "internalType": "uint256",
                    "name": "amount",
                    "type": "uint256"
                }
            ],
            "name": "collateralValueUSD",
            "outputs": [
                {
                    "internalType": "uint256",
                    "name": "",
                    "type": "uint256"
                }
            ],
            "stateMutability": "view",
            "type": "function"
        },
        {
            "inputs": [
                {
                    "internalType": "address",
                    "name": "token",
                    "type": "address"
                }
            ],
            "name": "getPrice",
            "outputs": [
                {
                    "internalType": "uint256",
                    "name": "",
                    "type": "uint256"
                }
            ],
            "stateMutability": "view",
            "type": "function"
        },
        {
            "inputs": [],
            "name": "liquidationBonus",
            "outputs": [
                {
                    "internalType": "uint16",
                    "name": "",
                    "type": "uint16"
                }
            ],
            "stateMutability": "view",
            "type": "function"
        },
        {
            "inputs": [
                {
                    "internalType": "address",
                    "name": "",
                    "type": "address"
                }
            ],
            "name": "liquidationThreshold",
            "outputs": [
                {
                    "internalType": "uint16",
                    "name": "",
                    "type": "uint16"
                }
            ],
            "stateMutability": "view",
            "type": "function"
        },
        {
            "inputs": [
                {
                    "internalType": "address",
                    "name": "token",
                    "type": "address"
                },
                {
                    "internalType": "uint256",
                    "name": "amount",
                    "type": "uint256"
                }
            ],
            "name": "liquidationThresholdValue",
            "outputs": [
                {
                    "internalType": "uint256",
                    "name": "",
                    "type": "uint256"
                }
            ],
            "stateMutability": "view",
            "type": "function"
        },
        {
            "inputs": [
                {
                    "internalType": "address",
                    "name": "",
                    "type": "address"
                }
            ],
            "name": "ltv",
            "outputs": [
                {
                    "internalType": "uint16",
                    "name": "",
                    "type": "uint16"
                }
            ],
            "stateMutability": "view",
            "type": "function"
        },
        {
            "inputs": [],
            "name": "owner",
            "outputs": [
                {
                    "internalType": "address",
                    "name": "",
                    "type": "address"
                }
            ],
            "stateMutability": "view",
            "type": "function"
        },
        {
            "inputs": [],
            "name": "priceOracle",
            "outputs": [
                {
                    "internalType": "contract IPriceOracle",
                    "name": "",
                    "type": "address"
                }
            ],
            "stateMutability": "view",
            "type": "function"
        },
        {
            "inputs": [
                {
                    "internalType": "uint16",
                    "name": "_closeFactor",
                    "type": "uint16"
                }
            ],
            "name": "setCloseFactor",
            "outputs": [],
            "stateMutability": "nonpayable",
            "type": "function"
        },
        {
            "inputs": [
                {
                    "internalType": "uint16",
                    "name": "_bonus",
                    "type": "uint16"
                }
            ],
            "name": "setLiquidationBonus",
            "outputs": [],
            "stateMutability": "nonpayable",
            "type": "function"
        },
        {
            "inputs": [
                {
                    "internalType": "address",
                    "name": "token",
                    "type": "address"
                },
                {
                    "internalType": "uint16",
                    "name": "_threshold",
                    "type": "uint16"
                }
            ],
            "name": "setLiquidationThreshold",
            "outputs": [],
            "stateMutability": "nonpayable",
            "type": "function"
        },
        {
            "inputs": [
                {
                    "internalType": "address",
                    "name": "token",
                    "type": "address"
                },
                {
                    "internalType": "uint16",
                    "name": "_ltv",
                    "type": "uint16"
                }
            ],
            "name": "setLtv",
            "outputs": [],
            "stateMutability": "nonpayable",
            "type": "function"
        }
    ],
    "bytecode": "0x60806040526002805463ffffffff1916632904138817905534801561002357600080fd5b50604051610b27380380610b2783398101604081905261004291610083565b60028054600160201b600160c01b0319163364010000000002179055600380546001600160a01b0319166001600160a01b03929092169190911790556100b3565b60006020828403121561009557600080fd5b81516001600160a01b03811681146100ac57600080fd5b9392505050565b610a65806100c26000396000f3fe608060405234801561001057600080fd5b50600436106100f55760003560e01c80637473eea611610097578063a70bc54211610066578063a70bc54214610220578063b1732b2514610233578063bc665e4814610257578063ec342ad01461026a57600080fd5b80637473eea6146101ba5780637b7c1f4c146101de5780637e600bb8146101f25780638da5cb5b1461020557600080fd5b806328b4a339116100d357806328b4a3391461016c57806329bc7cd31461018157806341976e0914610194578063735df7cd146101a757600080fd5b806305308b9f146100fa578063147b5cbf146101205780632630c12f14610141575b600080fd5b6002546101089061ffff1681565b60405161ffff90911681526020015b60405180910390f35b61013361012e3660046107e1565b610273565b604051908152602001610117565b600354610154906001600160a01b031681565b6040516001600160a01b039091168152602001610117565b61017f61017a36600461081d565b610394565b005b61013361018f3660046107e1565b610467565b6101336101a236600461083f565b6104b4565b61017f6101b536600461081d565b610523565b6101086101c836600461083f565b60006020819052908152604090205461ffff1681565b6002546101089062010000900461ffff1681565b61017f61020036600461085a565b6105e2565b6002546101549064010000000090046001600160a01b031681565b61017f61022e36600461085a565b6106b6565b61010861024136600461083f565b60016020526000908152604090205461ffff1681565b6101336102653660046107e1565b61078a565b61010861271081565b6003546040516341976e0960e01b81526001600160a01b03848116600483015260009283929116906341976e0990602401602060405180830381865afa1580156102c1573d6000803e3d6000fd5b505050506040513d601f19601f820116820180604052508101906102e5919061088d565b9050836001600160a01b031663313ce5676040518163ffffffff1660e01b8152600401602060405180830381865afa925050508015610341575060408051601f3d908101601f1916820190925261033e918101906108a6565b60015b61036a57670de0b6b3a764000061035884836108df565b61036291906108f6565b91505061038e565b61037581600a6109fc565b61037f85846108df565b61038991906108f6565b925050505b92915050565b60025464010000000090046001600160a01b031633146103cf5760405162461bcd60e51b81526004016103c690610a0b565b60405180910390fd5b61271061ffff821610156104125760405162461bcd60e51b815260206004820152600a602482015269626f6e75733c3130302560b01b60448201526064016103c6565b6002805463ffff000019166201000061ffff8416908102919091179091556040519081527f13ca71a2fea981f239bf14cc78b2a25b526145ac1f7b88c2682a56422386677c906020015b60405180910390a150565b6000806104748484610273565b6001600160a01b038516600090815260208190526040902054909150612710906104a29061ffff16836108df565b6104ac91906108f6565b949350505050565b6003546040516341976e0960e01b81526001600160a01b03838116600483015260009216906341976e0990602401602060405180830381865afa1580156104ff573d6000803e3d6000fd5b505050506040513d601f19601f8201168201806040525081019061038e919061088d565b60025464010000000090046001600160a01b031633146105555760405162461bcd60e51b81526004016103c690610a0b565b61271061ffff8216111561059e5760405162461bcd60e51b815260206004820152601060248201526f636c6f7365466163746f723e3130302560801b60448201526064016103c6565b6002805461ffff191661ffff83169081179091556040519081527f8de1ffef3cd65e3ce3a194c2248fb38a6dc37b80a82708bd5e7236b499ab539b9060200161045c565b60025464010000000090046001600160a01b031633146106145760405162461bcd60e51b81526004016103c690610a0b565b61271061ffff821611156106555760405162461bcd60e51b81526020600482015260086024820152676c74763e3130302560c01b60448201526064016103c6565b6001600160a01b03821660008181526020818152604091829020805461ffff191661ffff861690811790915591519182527f8005ffb19ff068a71f68f551b19fe8fea7839bf453d306fae7b62ed4b056f52d91015b60405180910390a25050565b60025464010000000090046001600160a01b031633146106e85760405162461bcd60e51b81526004016103c690610a0b565b61271061ffff8216111561072f5760405162461bcd60e51b815260206004820152600e60248201526d7468726573686f6c643e3130302560901b60448201526064016103c6565b6001600160a01b038216600081815260016020908152604091829020805461ffff191661ffff861690811790915591519182527f8a7c7f3c13a492ebc241fad7eded0f2c67efc4bed059b94a6d2aba062025585991016106aa565b6000806107978484610273565b6001600160a01b038516600090815260016020526040902054909150612710906104a29061ffff16836108df565b80356001600160a01b03811681146107dc57600080fd5b919050565b600080604083850312156107f457600080fd5b6107fd836107c5565b946020939093013593505050565b803561ffff811681146107dc57600080fd5b60006020828403121561082f57600080fd5b6108388261080b565b9392505050565b60006020828403121561085157600080fd5b610838826107c5565b6000806040838503121561086d57600080fd5b610876836107c5565b91506108846020840161080b565b90509250929050565b60006020828403121561089f57600080fd5b5051919050565b6000602082840312156108b857600080fd5b815160ff8116811461083857600080fd5b634e487b7160e01b600052601160045260246000fd5b808202811582820484141761038e5761038e6108c9565b60008261091357634e487b7160e01b600052601260045260246000fd5b500490565b600181815b80851115610953578160001904821115610939576109396108c9565b8085161561094657918102915b93841c939080029061091d565b509250929050565b60008261096a5750600161038e565b816109775750600061038e565b816001811461098d5760028114610997576109b3565b600191505061038e565b60ff8411156109a8576109a86108c9565b50506001821b61038e565b5060208310610133831016604e8410600b84101617156109d6575081810a61038e565b6109e08383610918565b80600019048211156109f4576109f46108c9565b029392505050565b600061083860ff84168361095b565b6020808252600a908201526937b7363c9037bbb732b960b11b60408201526060019056fea26469706673582212207c80fbfce6987ec717f718585dea60c852449d1a3207ff6a523867b35c7a4cf864736f6c63430008130033",
    "linkReferences": {},
    "deployedLinkReferences": {}
}