{
    "_format": "hh-sol-artifact-1",
    "contractName": "LendingPool",
    "sourceName": "contracts/LendingPool.sol",
    "abi": [
        {
            "inputs": [
                {
                    "internalType": "address",
                    "name": "_collateralManager",
                    "type": "address"
                }
            ],
            "stateMutability": "nonpayable",
            "type": "constructor"
        },
        {
            "anonymous": false,
            "inputs": [
                {
                    "indexed": true,
                    "internalType": "address",
                    "name": "user",
                    "type": "address"
                },
                {
                    "indexed": true,
                    "internalType": "address",
                    "name": "token",
                    "type": "address"
                },
                {
                    "indexed": false,
                    "internalType": "uint256",
                    "name": "amount",
                    "type": "uint256"
                }
            ],
            "name": "Borrow",
            "type": "event"
        },
        {
            "anonymous": false,
            "inputs": [
                {
                    "indexed": true,
                    "internalType": "address",
                    "name": "user",
                    "type": "address"
                },
                {
                    "indexed": true,
                    "internalType": "address",
                    "name": "token",
                    "type": "address"
                },
                {
                    "indexed": false,
                    "internalType": "uint256",
                    "name": "amount",
                    "type": "uint256"
                }
            ],
            "name": "Deposit",
            "type": "event"
        },
        {
            "anonymous": false,
            "inputs": [
                {
                    "indexed": true,
                    "internalType": "address",
                    "name": "liquidator",
                    "type": "address"
                },
                {
                    "indexed": true,
                    "internalType": "address",
                    "name": "borrower",
                    "type": "address"
                },
                {
                    "indexed": false,
                    "internalType": "address",
                    "name": "repayToken",
                    "type": "address"
                },
                {
                    "indexed": false,
                    "internalType": "address",
                    "name": "seizeToken",
                    "type": "address"
                },
                {
                    "indexed": false,
                    "internalType": "uint256",
                    "name": "repayAmount",
                    "type": "uint256"
                },
                {
                    "indexed": false,
                    "internalType": "uint256",
                    "name": "seizeAmount",
                    "type": "uint256"
                }
            ],
            "name": "Liquidation",
            "type": "event"
        },
        {
            "anonymous": false,
            "inputs": [
                {
                    "indexed": false,
                    "internalType": "address",
                    "name": "token",
                    "type": "address"
                },
                {
                    "indexed": false,
                    "internalType": "address",
                    "name": "interestModel",
                    "type": "address"
                },
                {
                    "indexed": false,
                    "internalType": "uint256",
                    "name": "reserveFactor",
                    "type": "uint256"
                }
            ],
            "name": "MarketListed",
            "type": "event"
        },
        {
            "anonymous": false,
            "inputs": [
                {
                    "indexed": true,
                    "internalType": "address",
                    "name": "payer",
                    "type": "address"
                },
                {
                    "indexed": true,
                    "internalType": "address",
                    "name": "borrower",
                    "type": "address"
                },
                {
                    "indexed": true,
                    "internalType": "address",
                    "name": "token",
                    "type": "address"
                },
                {
                    "indexed": false,
                    "internalType": "uint256",
                    "name": "amount",
                    "type": "uint256"
                }
            ],
            "name": "Repay",
            "type": "event"
        },
        {
            "anonymous": false,
            "inputs": [
                {
                    "indexed": true,
                    "internalType": "address",
                    "name": "user",
                    "type": "address"
                },
                {
                    "indexed": true,
                    "internalType": "address",
                    "name": "token",
                    "type": "address"
                },
                {
                    "indexed": false,
                    "internalType": "uint256",
                    "name": "amount",
                    "type": "uint256"
                }
            ],
            "name": "Withdraw",
            "type": "event"
        },
        {
            "inputs": [
                {
                    "internalType": "address",
                    "name": "token",
                    "type": "address"
                },
                {
                    "internalType": "uint256",
                    "name": "amount",
                    "type": "uint256"
                }
            ],
            "name": "borrow",
            "outputs": [],
            "stateMutability": "nonpayable",
            "type": "function"
        },
        {
            "inputs": [
                {
                    "internalType": "address",
                    "name": "",
                    "type": "address"
                },
                {
                    "internalType": "address",
                    "name": "",
                    "type": "address"
                }
            ],
            "name": "borrowed",
            "outputs": [
                {
                    "internalType": "uint256",
                    "name": "",
                    "type": "uint256"
                }
            ],
            "stateMutability": "view",
            "type": "function"
        },
        {
            "inputs": [],
            "name": "collateralManager",
            "outputs": [
                {
                    "internalType": "contract CollateralManager",
                    "name": "",
                    "type": "address"
                }
            ],
            "stateMutability": "view",
            "type": "function"
        },
        {
            "inputs": [
                {
                    "internalType": "address",
                    "name": "token",
                    "type": "address"
                },
                {
                    "internalType": "uint256",
                    "name": "amount",
                    "type": "uint256"
                }
            ],
            "name": "deposit",
            "outputs": [],
            "stateMutability": "nonpayable",
            "type": "function"
        },
        {
            "inputs": [
                {
                    "internalType": "address",
                    "name": "account",
                    "type": "address"
                },
                {
                    "internalType": "address[]",
                    "name": "collateralTokens",
                    "type": "address[]"
                },
                {
                    "internalType": "address[]",
                    "name": "borrowTokens",
                    "type": "address[]"
                }
            ],
            "name": "getHealthFactor",
            "outputs": [
                {
                    "internalType": "uint256",
                    "name": "healthPercentX10000",
                    "type": "uint256"
                }
            ],
            "stateMutability": "view",
            "type": "function"
        },
        {
            "inputs": [
                {
                    "internalType": "address",
                    "name": "account",
                    "type": "address"
                },
                {
                    "internalType": "address[]",
                    "name": "tokens",
                    "type": "address[]"
                }
            ],
            "name": "getUserBorrowedUSD",
            "outputs": [
                {
                    "internalType": "uint256",
                    "name": "",
                    "type": "uint256"
                }
            ],
            "stateMutability": "view",
            "type": "function"
        },
        {
            "inputs": [
                {
                    "internalType": "address",
                    "name": "account",
                    "type": "address"
                },
                {
                    "internalType": "address[]",
                    "name": "tokens",
                    "type": "address[]"
                }
            ],
            "name": "getUserBorrowingPowerUSD",
            "outputs": [
                {
                    "internalType": "uint256",
                    "name": "",
                    "type": "uint256"
                }
            ],
            "stateMutability": "view",
            "type": "function"
        },
        {
            "inputs": [
                {
                    "internalType": "address",
                    "name": "borrower",
                    "type": "address"
                },
                {
                    "internalType": "address",
                    "name": "repayToken",
                    "type": "address"
                },
                {
                    "internalType": "address",
                    "name": "seizeToken",
                    "type": "address"
                },
                {
                    "internalType": "uint256",
                    "name": "repayAmount",
                    "type": "uint256"
                }
            ],
            "name": "liquidate",
            "outputs": [],
            "stateMutability": "nonpayable",
            "type": "function"
        },
        {
            "inputs": [
                {
                    "internalType": "address",
                    "name": "token",
                    "type": "address"
                },
                {
                    "internalType": "address",
                    "name": "interestModel",
                    "type": "address"
                },
                {
                    "internalType": "uint256",
                    "name": "reserveFactor",
                    "type": "uint256"
                }
            ],
            "name": "listMarket",
            "outputs": [],
            "stateMutability": "nonpayable",
            "type": "function"
        },
        {
            "inputs": [
                {
                    "internalType": "uint256",
                    "name": "",
                    "type": "uint256"
                }
            ],
            "name": "listedTokens",
            "outputs": [
                {
                    "internalType": "address",
                    "name": "",
                    "type": "address"
                }
            ],
            "stateMutability": "view",
            "type": "function"
        },
        {
            "inputs": [
                {
                    "internalType": "address",
                    "name": "",
                    "type": "address"
                }
            ],
            "name": "markets",
            "outputs": [
                {
                    "internalType": "bool",
                    "name": "listed",
                    "type": "bool"
                },
                {
                    "internalType": "uint256",
                    "name": "totalSupply",
                    "type": "uint256"
                },
                {
                    "internalType": "uint256",
                    "name": "totalBorrows",
                    "type": "uint256"
                },
                {
                    "internalType": "uint256",
                    "name": "lastUpdate",
                    "type": "uint256"
                },
                {
                    "internalType": "contract IInterestRateModel",
                    "name": "interestModel",
                    "type": "address"
                },
                {
                    "internalType": "uint256",
                    "name": "reserveFactor",
                    "type": "uint256"
                }
            ],
            "stateMutability": "view",
            "type": "function"
        },
        {
            "inputs": [],
            "name": "owner",
            "outputs": [
                {
                    "internalType": "address",
                    "name": "",
                    "type": "address"
                }
            ],
            "stateMutability": "view",
            "type": "function"
        },
        {
            "inputs": [],
            "name": "priceOracle",
            "outputs": [
                {
                    "internalType": "contract IPriceOracle",
                    "name": "",
                    "type": "address"
                }
            ],
            "stateMutability": "view",
            "type": "function"
        },
        {
            "inputs": [
                {
                    "internalType": "address",
                    "name": "token",
                    "type": "address"
                },
                {
                    "internalType": "uint256",
                    "name": "amount",
                    "type": "uint256"
                },
                {
                    "internalType": "address",
                    "name": "borrower",
                    "type": "address"
                }
            ],
            "name": "repay",
            "outputs": [],
            "stateMutability": "nonpayable",
            "type": "function"
        },
        {
            "inputs": [
                {
                    "internalType": "address",
                    "name": "",
                    "type": "address"
                },
                {
                    "internalType": "address",
                    "name": "",
                    "type": "address"
                }
            ],
            "name": "supplied",
            "outputs": [
                {
                    "internalType": "uint256",
                    "name": "",
                    "type": "uint256"
                }
            ],
            "stateMutability": "view",
            "type": "function"
        },
        {
            "inputs": [
                {
                    "internalType": "address",
                    "name": "token",
                    "type": "address"
                },
                {
                    "internalType": "uint256",
                    "name": "amount",
                    "type": "uint256"
                }
            ],
            "name": "withdraw",
            "outputs": [],
            "stateMutability": "nonpayable",
            "type": "function"
        }
    ],
    "bytecode": "0x60806040523480156200001157600080fd5b50604051620026b3380380620026b3833981016040819052620000349162000077565b6001600055600780546001600160a01b03199081163317909155600580546001600160a01b039390931692821683179055600680549091169091179055620000a9565b6000602082840312156200008a57600080fd5b81516001600160a01b0381168114620000a257600080fd5b9392505050565b6125fa80620000b96000396000f3fe608060405234801561001057600080fd5b50600436106101005760003560e01c80635ceae9c411610097578063aab3f86811610066578063aab3f868146102a6578063b0a02abe146102b9578063e909cf52146102e4578063f3fef3a3146102f757600080fd5b80635ceae9c4146101e25780638da5cb5b146101f55780638e8f294b146102085780639a476d681461029357600080fd5b80632630c12f116100d35780632630c12f1461019657806347e7ef24146101a95780634b8a3529146101bc5780635a9d1ac3146101cf57600080fd5b806317d9baf714610105578063190dd91d1461011a5780631f655b691461014057806323be345c1461016b575b600080fd5b61011861011336600461207d565b61030a565b005b61012d610128366004612105565b6104c4565b6040519081526020015b60405180910390f35b61012d61014e366004612158565b600160209081526000928352604080842090915290825290205481565b60055461017e906001600160a01b031681565b6040516001600160a01b039091168152602001610137565b60065461017e906001600160a01b031681565b6101186101b736600461218b565b610652565b6101186101ca36600461218b565b610797565b61017e6101dd3660046121b5565b610a79565b6101186101f03660046121ce565b610aa3565b60075461017e906001600160a01b031681565b61025b61021636600461220a565b600360208190526000918252604090912080546001820154600283015493830154600484015460059094015460ff909316949193919290916001600160a01b03169086565b60408051961515875260208701959095529385019290925260608401526001600160a01b0316608083015260a082015260c001610137565b61012d6102a1366004612105565b610c4a565b6101186102b436600461222c565b610dbe565b61012d6102c7366004612158565b600260209081526000928352604080842090915290825290205481565b61012d6102f2366004612277565b61147c565b61011861030536600461218b565b611619565b6007546001600160a01b031633146103565760405162461bcd60e51b815260206004820152600a60248201526937b7363c9037bbb732b960b11b60448201526064015b60405180910390fd5b6001600160a01b03831660009081526003602052604090205460ff16156103b05760405162461bcd60e51b815260206004820152600e60248201526d185b1c9958591e481b1a5cdd195960921b604482015260640161034d565b6040805160c0810182526001808252600060208084018281528486018381524260608088019182526001600160a01b038b811660808a0181815260a08b018d81528f8416808b526003808b528e8c209d518e5490151560ff19909116178e5598518d8d0155965160028d01559451968b019690965594516004808b018054929093166001600160a01b031992831617909255925160059099019890985587549687018855969094527f8a35acfbc15ff81a39ae7d344fd709f28e8600b4aa8c65c6b64bfe7fe36bd19b9094018054909316841790925584519283528201529182018390527f72373d3196aa33ab52aa4f83673dd6c4d062b59497d43f3538b1f956b48b811b910160405180910390a1505050565b600080805b838110156106495760008585838181106104e5576104e56122f8565b90506020020160208101906104fa919061220a565b6001600160a01b03808916600090815260016020908152604080832093851683529290522054909150801561063f5760055460405163147b5cbf60e01b81526001600160a01b03848116600483015260248201849052600092169063147b5cbf90604401602060405180830381865afa15801561057b573d6000803e3d6000fd5b505050506040513d601f19601f8201168201806040525081019061059f919061230e565b600554604051633a39f75360e11b81526001600160a01b03868116600483015292935060009290911690637473eea690602401602060405180830381865afa1580156105ef573d6000803e3d6000fd5b505050506040513d601f19601f820116820180604052508101906106139190612327565b61ffff1690506127106106268284612361565b610630919061237e565b61063a90876123a0565b955050505b50506001016104c9565b50949350505050565b6000546001146106745760405162461bcd60e51b815260040161034d906123b3565b600260009081556001600160a01b03831681526003602052604090205460ff166106b05760405162461bcd60e51b815260040161034d906123d6565b600081116106d05760405162461bcd60e51b815260040161034d90612401565b6106d982611819565b6106e582333084611982565b3360009081526001602090815260408083206001600160a01b0386168452909152812080548392906107189084906123a0565b90915550506001600160a01b038216600090815260036020526040812060010180548392906107489084906123a0565b90915550506040518181526001600160a01b0383169033907f5548c837ab068cf56a2c2479df0882a4922fd203edb7517321831d95078c5f62906020015b60405180910390a350506001600055565b6000546001146107b95760405162461bcd60e51b815260040161034d906123b3565b600260009081556001600160a01b03831681526003602052604090205460ff166107f55760405162461bcd60e51b815260040161034d906123d6565b600081116108155760405162461bcd60e51b815260040161034d90612401565b61081e82611819565b600061082933611a4d565b9050600061083633611bd2565b6006546040516341976e0960e01b81526001600160a01b038781166004830152929350600092909116906341976e0990602401602060405180830381865afa158015610886573d6000803e3d6000fd5b505050506040513d601f19601f820116820180604052508101906108aa919061230e565b90506000856001600160a01b031663313ce5676040518163ffffffff1660e01b8152600401602060405180830381865afa1580156108ec573d6000803e3d6000fd5b505050506040513d601f19601f82011682018060405250810190610910919061241f565b9050600060128260ff16116109455761092a82600a612526565b6109348785612361565b61093e919061237e565b9050610967565b61095082600a612526565b61095a8785612361565b610964919061237e565b90505b8461097282866123a0565b11156109b75760405162461bcd60e51b815260206004820152601460248201527332bc31b2b2b239903137b93937bb903837bbb2b960611b604482015260640161034d565b3360009081526002602090815260408083206001600160a01b038b168452909152812080548892906109ea9084906123a0565b90915550506001600160a01b03871660009081526003602052604081206002018054889290610a1a9084906123a0565b90915550610a2b9050873388611d3f565b6040518681526001600160a01b0388169033907f312a5e5e1079f5dda4e95dbbd0b908b291fd5b992ef22073643ab691572c5b529060200160405180910390a3505060016000555050505050565b60048181548110610a8957600080fd5b6000918252602090912001546001600160a01b0316905081565b600054600114610ac55760405162461bcd60e51b815260040161034d906123b3565b600260009081556001600160a01b03841681526003602052604090205460ff16610b015760405162461bcd60e51b815260040161034d906123d6565b60008211610b215760405162461bcd60e51b815260040161034d90612401565b610b2a83611819565b6001600160a01b0380821660009081526002602090815260408083209387168352929052205480610b8c5760405162461bcd60e51b815260206004820152600c60248201526b1b9bdd1a1a5b99c81bddd95960a21b604482015260640161034d565b8281811115610b985750805b610ba485333084611982565b610bae8183612535565b6001600160a01b038085166000908152600260208181526040808420948b1684529381528383209490945560039093529081209091018054839290610bf4908490612535565b90915550506040518181526001600160a01b03808716919085169033907f4cdde6e09bb755c9a5589ebaec640bbfedff1362d4b255ebf8339782b9942faa9060200160405180910390a450506001600055505050565b600080805b83811015610649576000858583818110610c6b57610c6b6122f8565b9050602002016020810190610c80919061220a565b6001600160a01b038089166000908152600260209081526040808320938516835292905220549091508015610db4576006546040516341976e0960e01b81526001600160a01b03848116600483015260009216906341976e0990602401602060405180830381865afa158015610cfa573d6000803e3d6000fd5b505050506040513d601f19601f82011682018060405250810190610d1e919061230e565b90506000836001600160a01b031663313ce5676040518163ffffffff1660e01b8152600401602060405180830381865afa158015610d60573d6000803e3d6000fd5b505050506040513d601f19601f82011682018060405250810190610d84919061241f565b9050610d9181600a612526565b610d9b8484612361565b610da5919061237e565b610daf90876123a0565b955050505b5050600101610c4f565b600054600114610de05760405162461bcd60e51b815260040161034d906123b3565b600260009081556001600160a01b03841681526003602052604090205460ff168015610e2457506001600160a01b03821660009081526003602052604090205460ff165b610e655760405162461bcd60e51b81526020600482015260126024820152711b585c9ad95d1cc81b9bdd081b1a5cdd195960721b604482015260640161034d565b60008111610e855760405162461bcd60e51b815260040161034d90612401565b610e8e83611819565b610e9782611819565b6001600160a01b0380851660009081526002602090815260408083209387168352929052205480610f025760405162461bcd60e51b8152602060048201526015602482015274626f72726f776572206f776573206e6f7468696e6760581b604482015260640161034d565b610f0b85611dfd565b15610f475760405162461bcd60e51b815260206004820152600c60248201526b6e6f7420656c696769626c6560a01b604482015260640161034d565b6000612710600560009054906101000a90046001600160a01b03166001600160a01b03166305308b9f6040518163ffffffff1660e01b8152600401602060405180830381865afa158015610f9f573d6000803e3d6000fd5b505050506040513d601f19601f82011682018060405250810190610fc39190612327565b610fd19061ffff1684612361565b610fdb919061237e565b90508281811115610fe95750805b82811115610ff45750815b6006546040516341976e0960e01b81526001600160a01b03888116600483015260009216906341976e0990602401602060405180830381865afa15801561103f573d6000803e3d6000fd5b505050506040513d601f19601f82011682018060405250810190611063919061230e565b90506000876001600160a01b031663313ce5676040518163ffffffff1660e01b8152600401602060405180830381865afa1580156110a5573d6000803e3d6000fd5b505050506040513d601f19601f820116820180604052508101906110c9919061241f565b905060006110d882600a612526565b6110e28585612361565b6110ec919061237e565b90506000612710600560009054906101000a90046001600160a01b03166001600160a01b0316637b7c1f4c6040518163ffffffff1660e01b8152600401602060405180830381865afa158015611146573d6000803e3d6000fd5b505050506040513d601f19601f8201168201806040525081019061116a9190612327565b6111789061ffff1684612361565b611182919061237e565b6006546040516341976e0960e01b81526001600160a01b038c81166004830152929350600092909116906341976e0990602401602060405180830381865afa1580156111d2573d6000803e3d6000fd5b505050506040513d601f19601f820116820180604052508101906111f6919061230e565b9050600081116112325760405162461bcd60e51b81526020600482015260076024820152660707269636520360cc1b604482015260640161034d565b60008160018161124a86670de0b6b3a7640000612361565b61125491906123a0565b61125e9190612535565b611268919061237e565b905080600160008f6001600160a01b03166001600160a01b0316815260200190815260200160002060008d6001600160a01b03166001600160a01b031681526020019081526020016000205410156113025760405162461bcd60e51b815260206004820152601760248201527f696e73756666696369656e7420636f6c6c61746572616c000000000000000000604482015260640161034d565b61130e8c33308a611982565b86600260008f6001600160a01b03166001600160a01b0316815260200190815260200160002060008e6001600160a01b03166001600160a01b0316815260200190815260200160002060008282546113669190612535565b90915550506001600160a01b038c1660009081526003602052604081206002018054899290611396908490612535565b90915550506001600160a01b03808e166000908152600160209081526040808320938f16835292905290812080548392906113d2908490612535565b90915550503360009081526001602090815260408083206001600160a01b038f1684529091528120805483929061140a9084906123a0565b9091555050604080516001600160a01b038e811682528d8116602083015291810189905260608101839052908e169033907f64f7c2c46814e079964a1934953e50adc025dc52cdbeb7d8e478e9fb9bfd2c2d9060800160405180910390a3505060016000555050505050505050505050565b604051631348edad60e31b815260009081903090639a476d68906114a8908a9088908890600401612548565b602060405180830381865afa1580156114c5573d6000803e3d6000fd5b505050506040513d601f19601f820116820180604052508101906114e9919061230e565b90506000805b868110156115df57600088888381811061150b5761150b6122f8565b9050602002016020810190611520919061220a565b6001600160a01b03808c1660009081526001602090815260408083209385168352929052205490915080156115d55760055460405163178ccbc960e31b81526001600160a01b03848116600483015260248201849052600092169063bc665e4890604401602060405180830381865afa1580156115a1573d6000803e3d6000fd5b505050506040513d601f19601f820116820180604052508101906115c5919061230e565b90506115d181866123a0565b9450505b50506001016114ef565b50816000036115f45760001992505050611610565b8161160182612710612361565b61160b919061237e565b925050505b95945050505050565b60005460011461163b5760405162461bcd60e51b815260040161034d906123b3565b600260009081556001600160a01b03831681526003602052604090205460ff166116775760405162461bcd60e51b815260040161034d906123d6565b600081116116975760405162461bcd60e51b815260040161034d90612401565b3360009081526001602090815260408083206001600160a01b03861684529091529020548111156117005760405162461bcd60e51b8152602060048201526013602482015272696e73756666696369656e7420737570706c7960681b604482015260640161034d565b61170982611819565b3360009081526001602090815260408083206001600160a01b03861684529091528120805483929061173c908490612535565b90915550506001600160a01b0382166000908152600360205260408120600101805483929061176c908490612535565b9091555061177b905033611dfd565b6117d15760405162461bcd60e51b815260206004820152602160248201527f776974686472617720776f756c6420756e646572636f6c6c61746572616c697a6044820152606560f81b606482015260840161034d565b6117dc823383611d3f565b6040518181526001600160a01b0383169033907f9b1bfa7fa9ee420a16e124f794c35ac9f90472acc99140eb2f6447c714cad8eb90602001610786565b6001600160a01b0381166000908152600360205260409020805460ff1661183e575050565b600381015442906000906118529083612535565b9050806000036118625750505050565b6000808460020154856001015461187991906123a0565b90508060000361188c57600091506118b2565b808560020154670de0b6b3a76400006118a59190612361565b6118af919061237e565b91505b600485810154604051634fd41dad60e11b81529182018490526000916001600160a01b0390911690639fa83b5a90602401602060405180830381865afa158015611900573d6000803e3d6000fd5b505050506040513d601f19601f82011682018060405250810190611924919061230e565b90506000670de0b6b3a7640000858389600201546119429190612361565b61194c9190612361565b611956919061237e565b90508087600201600082825461196c91906123a0565b9091555050505060039094019290925550505050565b6040516323b872dd60e01b81526001600160a01b038481166004830152838116602483015260448201839052600091908616906323b872dd906064016020604051808303816000875af11580156119dd573d6000803e3d6000fd5b505050506040513d601f19601f82011682018060405250810190611a0191906125a2565b905080611a465760405162461bcd60e51b81526020600482015260136024820152721d1c985b9cd9995c919c9bdb4819985a5b1959606a1b604482015260640161034d565b5050505050565b600080805b600454811015611bcb57600060048281548110611a7157611a716122f8565b60009182526020808320909101546001600160a01b038881168452600183526040808520919092168085529252909120549091508015611bc15760055460405163147b5cbf60e01b81526001600160a01b03848116600483015260248201849052600092169063147b5cbf90604401602060405180830381865afa158015611afd573d6000803e3d6000fd5b505050506040513d601f19601f82011682018060405250810190611b21919061230e565b600554604051633a39f75360e11b81526001600160a01b03868116600483015292935060009290911690637473eea690602401602060405180830381865afa158015611b71573d6000803e3d6000fd5b505050506040513d601f19601f82011682018060405250810190611b959190612327565b61ffff169050612710611ba88284612361565b611bb2919061237e565b611bbc90876123a0565b955050505b5050600101611a52565b5092915050565b600080805b600454811015611bcb57600060048281548110611bf657611bf66122f8565b60009182526020808320909101546001600160a01b038881168452600283526040808520919092168085529252909120549091508015611d35576006546040516341976e0960e01b81526001600160a01b03848116600483015260009216906341976e0990602401602060405180830381865afa158015611c7b573d6000803e3d6000fd5b505050506040513d601f19601f82011682018060405250810190611c9f919061230e565b90506000836001600160a01b031663313ce5676040518163ffffffff1660e01b8152600401602060405180830381865afa158015611ce1573d6000803e3d6000fd5b505050506040513d601f19601f82011682018060405250810190611d05919061241f565b9050611d1281600a612526565b611d1c8484612361565b611d26919061237e565b611d3090876123a0565b955050505b5050600101611bd7565b60405163a9059cbb60e01b81526001600160a01b038381166004830152602482018390526000919085169063a9059cbb906044016020604051808303816000875af1158015611d92573d6000803e3d6000fd5b505050506040513d601f19601f82011682018060405250810190611db691906125a2565b905080611df75760405162461bcd60e51b815260206004820152600f60248201526e1d1c985b9cd9995c8819985a5b1959608a1b604482015260640161034d565b50505050565b600080805b600454811015611f6a57600060048281548110611e2157611e216122f8565b60009182526020808320909101546001600160a01b038881168452600283526040808520919092168085529252909120549091508015611f60576006546040516341976e0960e01b81526001600160a01b03848116600483015260009216906341976e0990602401602060405180830381865afa158015611ea6573d6000803e3d6000fd5b505050506040513d601f19601f82011682018060405250810190611eca919061230e565b90506000836001600160a01b031663313ce5676040518163ffffffff1660e01b8152600401602060405180830381865afa158015611f0c573d6000803e3d6000fd5b505050506040513d601f19601f82011682018060405250810190611f30919061241f565b9050611f3d81600a612526565b611f478484612361565b611f51919061237e565b611f5b90876123a0565b955050505b5050600101611e02565b506000805b60045481101561205857600060048281548110611f8e57611f8e6122f8565b60009182526020808320909101546001600160a01b03898116845260018352604080852091909216808552925290912054909150801561204e5760055460405163178ccbc960e31b81526001600160a01b03848116600483015260248201849052600092169063bc665e4890604401602060405180830381865afa15801561201a573d6000803e3d6000fd5b505050506040513d601f19601f8201168201806040525081019061203e919061230e565b905061204a81866123a0565b9450505b5050600101611f6f565b50101592915050565b80356001600160a01b038116811461207857600080fd5b919050565b60008060006060848603121561209257600080fd5b61209b84612061565b92506120a960208501612061565b9150604084013590509250925092565b60008083601f8401126120cb57600080fd5b50813567ffffffffffffffff8111156120e357600080fd5b6020830191508360208260051b85010111156120fe57600080fd5b9250929050565b60008060006040848603121561211a57600080fd5b61212384612061565b9250602084013567ffffffffffffffff81111561213f57600080fd5b61214b868287016120b9565b9497909650939450505050565b6000806040838503121561216b57600080fd5b61217483612061565b915061218260208401612061565b90509250929050565b6000806040838503121561219e57600080fd5b6121a783612061565b946020939093013593505050565b6000602082840312156121c757600080fd5b5035919050565b6000806000606084860312156121e357600080fd5b6121ec84612061565b92506020840135915061220160408501612061565b90509250925092565b60006020828403121561221c57600080fd5b61222582612061565b9392505050565b6000806000806080858703121561224257600080fd5b61224b85612061565b935061225960208601612061565b925061226760408601612061565b9396929550929360600135925050565b60008060008060006060868803121561228f57600080fd5b61229886612061565b9450602086013567ffffffffffffffff808211156122b557600080fd5b6122c189838a016120b9565b909650945060408801359150808211156122da57600080fd5b506122e7888289016120b9565b969995985093965092949392505050565b634e487b7160e01b600052603260045260246000fd5b60006020828403121561232057600080fd5b5051919050565b60006020828403121561233957600080fd5b815161ffff8116811461222557600080fd5b634e487b7160e01b600052601160045260246000fd5b80820281158282048414176123785761237861234b565b92915050565b60008261239b57634e487b7160e01b600052601260045260246000fd5b500490565b808201808211156123785761237861234b565b6020808252600990820152681c99595b9d1c985b9d60ba1b604082015260600190565b6020808252601190820152701b585c9ad95d081b9bdd081b1a5cdd1959607a1b604082015260600190565b6020808252600490820152637a65726f60e01b604082015260600190565b60006020828403121561243157600080fd5b815160ff8116811461222557600080fd5b600181815b8085111561247d5781600019048211156124635761246361234b565b8085161561247057918102915b93841c9390800290612447565b509250929050565b60008261249457506001612378565b816124a157506000612378565b81600181146124b757600281146124c1576124dd565b6001915050612378565b60ff8411156124d2576124d261234b565b50506001821b612378565b5060208310610133831016604e8410600b8410161715612500575081810a612378565b61250a8383612442565b806000190482111561251e5761251e61234b565b029392505050565b600061222560ff841683612485565b818103818111156123785761237861234b565b6001600160a01b03848116825260406020808401829052908301849052600091859160608501845b87811015612595578361258286612061565b1682529382019390820190600101612570565b5098975050505050505050565b6000602082840312156125b457600080fd5b8151801515811461222557600080fdfea264697066735822122051ad370f8be14758073bfe182fda0d99113fc05e0fd04a6b98cd393d83f5c64164736f6c63430008130033",
    "linkReferences": {},
    "deployedLinkReferences": {}
}