{
    "_format": "hh-sol-artifact-1",
    "contractName": "PriceOracleMock",
    "sourceName": "contracts/PriceOracleMock.sol",
    "abi": [
        {
            "inputs": [
                {
                    "internalType": "address",
                    "name": "token",
                    "type": "address"
                }
            ],
            "name": "getPrice",
            "outputs": [
                {
                    "internalType": "uint256",
                    "name": "",
                    "type": "uint256"
                }
            ],
            "stateMutability": "view",
            "type": "function"
        },
        {
            "inputs": [
                {
                    "internalType": "address",
                    "name": "",
                    "type": "address"
                }
            ],
            "name": "prices",
            "outputs": [
                {
                    "internalType": "uint256",
                    "name": "",
                    "type": "uint256"
                }
            ],
            "stateMutability": "view",
            "type": "function"
        },
        {
            "inputs": [
                {
                    "internalType": "address",
                    "name": "token",
                    "type": "address"
                },
                {
                    "internalType": "uint256",
                    "name": "price",
                    "type": "uint256"
                }
            ],
            "name": "setPrice",
            "outputs": [],
            "stateMutability": "nonpayable",
            "type": "function"
        },
        {
            "inputs": [
                {
                    "internalType": "address[]",
                    "name": "tokens",
                    "type": "address[]"
                },
                {
                    "internalType": "uint256[]",
                    "name": "_prices",
                    "type": "uint256[]"
                }
            ],
            "name": "setPrices",
            "outputs": [],
            "stateMutability": "nonpayable",
            "type": "function"
        },
        {
            "inputs": [
                {
                    "internalType": "address",
                    "name": "token",
                    "type": "address"
                },
                {
                    "internalType": "uint256",
                    "name": "percentDrop",
                    "type": "uint256"
                }
            ],
            "name": "simulatePriceDrop",
            "outputs": [],
            "stateMutability": "nonpayable",
            "type": "function"
        },
        {
            "inputs": [
                {
                    "internalType": "address",
                    "name": "token",
                    "type": "address"
                },
                {
                    "internalType": "uint256",
                    "name": "percentIncrease",
                    "type": "uint256"
                }
            ],
            "name": "simulatePriceIncrease",
            "outputs": [],
            "stateMutability": "nonpayable",
            "type": "function"
        }
    ],
    "bytecode": "0x608060405234801561001057600080fd5b50610534806100206000396000f3fe608060405234801561001057600080fd5b50600436106100615760003560e01c8062e4768b14610066578063234580e31461009257806341976e09146100a55780634352fa9f146100ca5780634670c504146100dd578063cfed246b146100f0575b600080fd5b61009061007436600461032f565b6001600160a01b03909116600090815260208190526040902055565b005b6100906100a036600461032f565b610110565b6100b86100b3366004610359565b6101d1565b60405190815260200160405180910390f35b6100906100d83660046103c7565b61020d565b6100906100eb36600461032f565b6102cf565b6100b86100fe366004610359565b60006020819052908152604090205481565b60648111156101575760405162461bcd60e51b815260206004820152600e60248201526d64726f7020746f6f206c6172676560901b60448201526064015b60405180910390fd5b6001600160a01b0382166000908152602081905260409020548061018d5760405162461bcd60e51b815260040161014e90610433565b6000606461019b8482610470565b6101a59084610483565b6101af919061049a565b6001600160a01b03909416600090815260208190526040902093909355505050565b6001600160a01b038116600090815260208190526040812054806102075760405162461bcd60e51b815260040161014e90610433565b92915050565b82811461024e5760405162461bcd60e51b815260206004820152600f60248201526e0d8cadccee8d040dad2e6dac2e8c6d608b1b604482015260640161014e565b60005b838110156102c85782828281811061026b5761026b6104bc565b90506020020135600080878785818110610287576102876104bc565b905060200201602081019061029c9190610359565b6001600160a01b03168152602081019190915260400160002055806102c0816104d2565b915050610251565b5050505050565b6001600160a01b038216600090815260208190526040902054806103055760405162461bcd60e51b815260040161014e90610433565b6000606461019b84826104eb565b80356001600160a01b038116811461032a57600080fd5b919050565b6000806040838503121561034257600080fd5b61034b83610313565b946020939093013593505050565b60006020828403121561036b57600080fd5b61037482610313565b9392505050565b60008083601f84011261038d57600080fd5b50813567ffffffffffffffff8111156103a557600080fd5b6020830191508360208260051b85010111156103c057600080fd5b9250929050565b600080600080604085870312156103dd57600080fd5b843567ffffffffffffffff808211156103f557600080fd5b6104018883890161037b565b9096509450602087013591508082111561041a57600080fd5b506104278782880161037b565b95989497509550505050565b6020808252600d908201526c1c1c9a58d9481b9bdd081cd95d609a1b604082015260600190565b634e487b7160e01b600052601160045260246000fd5b818103818111156102075761020761045a565b80820281158282048414176102075761020761045a565b6000826104b757634e487b7160e01b600052601260045260246000fd5b500490565b634e487b7160e01b600052603260045260246000fd5b6000600182016104e4576104e461045a565b5060010190565b808201808211156102075761020761045a56fea2646970667358221220530946d01afa0648a055b32c409c571ccc1340db0e1a10a943b6dd536000448064736f6c63430008130033",
    "linkReferences": {},
    "deployedLinkReferences": {}
}